S02B00002F776F726B7370616365732F6D6F62696C692D6669726D776172652F617070732F68656C6C6F2D7764
S3150802000000000520F51302085113020853130208CB
S315080200105513020857130208591302080000000074
S315080200200000000000000000000000005B13020848
S315080200305D130208000000005F130208611302083C
S315080200404514020845140208451402084514020814
S315080200504514020845140208451402084514020804
S3150802006045140208451402084514020869130208D1
S3150802007045140208451402084514020845140208E4
S3150802008045140208451402084514020845140208D4
S3150802009045140208451402084514020845140208C4
S315080200A045140208451402084514020845140208B4
S315080200B07913020845140208451402084514020871
S315080200C04514020845140208451402088913020851
S315080200D04514020845140208451402084514020884
S315080200E04514020845140208451402084514020874
S315080200F04514020845140208451402084514020864
S315080201004514020845140208451402084514020853
S315080201104514020845140208451402084514020843
S315080201204514020845140208451402084514020833
S315080201304514020845140208451402084514020823
S315080201404514020845140208451402084514020813
S315080201504514020845140208451402084514020803
S3150802016045140208451402084514020845140208F3
S315080201704514020845140208451402080000000046
S3150802018045140208451402084514020845140208D3
S3150802019045140208451402084514020845140208C3
S315080201A04514020845140208000000000000000079
S315080201C0844641EA000313F003036DD1403A41D352
S315080201D051F8043B40F8043B51F8043B40F8043B11
S315080201E051F8043B40F8043B51F8043B40F8043B01
S315080201F051F8043B40F8043B51F8043B40F8043BF1
S3150802020051F8043B40F8043B51F8043B40F8043BE0
S3150802021051F8043B40F8043B51F8043B40F8043BD0
S3150802022051F8043B40F8043B51F8043B40F8043BC0
S3150802023051F8043B40F8043B51F8043B40F8043BB0
S3150802024051F8043B40F8043B51F8043B40F8043BA0
S31508020250403ABDD2303211D351F8043B40F8043B40
S3150802026051F8043B40F8043B51F8043B40F8043B80
S3150802027051F8043B40F8043B103AEDD20C3205D350
S3150802028051F8043B40F8043B043AF9D2043208D048
S31508020290D2071CBF11F8013B00F8013B01D30B88BA
S315080202A003806046704700BF082A13D38B078DD098
S315080202B010F003038AD0C3F10403D21ADB071CBF6A
S315080202C011F8013B00F8013B80D331F8023B20F8D4
S315080202D0023B7BE7043AD9D3013A11F8013B00F80D
S315080202E0013BF9D20B7803704B7843708B78837095
S315080202F06046704700000000000000000000000091
S3150802030090F800F06DE9024520F007016FF0000C45
S3150802031010F0070491F820F040F049804FF00004ED
S315080203206FF00700D1E9002391F840F000F10800C8
S3150802033082FA4CF2A4FA8CF283FA4CF3A2FA8CF300
S315080203404BBBD1E9022382FA4CF200F10800A4FA67
S315080203508CF283FA4CF3A2FA8CF3E3B9D1E90423BB
S3150802036082FA4CF200F10800A4FA8CF283FA4CF3F2
S31508020370A2FA8CF37BB9D1E9062301F1200182FAAC
S315080203804CF200F10800A4FA8CF283FA4CF3A2FAB2
S315080203908CF3002BC6D0002A04BF04301A4612BAC0
S315080203A0B2FA82F2FDE8024500EBD2007047D1E9C3
S315080203B0002304F00305C4F100004FEAC50514F052
S315080203C0040F91F840F00CFA05F562EA05021CBF23
S315080203D063EA050362464FF00004A9E7000000003D
S315080203E001F0FF01102A2BDB10F0070F08D010F8D6
S315080203F0013B013A8B422DD010F0070F42B3F6D1DA
S31508020400F0B441EA012141EA014122F007047FF0F2
S3150802041000070023F0E80256083C85EA010586EA49
S31508020420010685FA47F5A3FA87F586FA47F6A5FA85
S3150802043087F68EB9EED1F0BC01F0FF0102F0070291
S3150802044032B110F8013B013A83EA010313B1F8D13C
S315080204500020704701387047002D06BF354603381D
S31508020460073815F0010F07D1013015F4807F02BF56
S31508020470013015F4C03F0130F0BC0138704700BFA7
S3150802048081F0004102E000BF83F0004330B54FEA35
S3150802049041044FEA430594EA050F08BF90EA020FA2
S315080204A01FBF54EA000C55EA020C7FEA645C7FEA35
S315080204B0655C00F0E2804FEA5454D4EB5555B8BF58
S315080204C06D420CDD2C4480EA020281EA030382EAC9
S315080204D0000083EA010180EA020281EA0303362D5B
S315080204E088BF30BD11F0004F4FEA01314FF4801C2E
S315080204F04CEA113102D0404261EB410113F0004F40
S315080205004FEA03334CEA133302D0524263EB4303F6
S3150802051094EA050F00F0A780A4F10104D5F1200E94
S315080205200DDB02FA0EFC22FA05F2801841F10001EF
S3150802053003FA0EF2801843FA05F359410EE0A5F1C3
S3150802054020050EF1200E012A03FA0EFC28BF4CF0F4
S31508020550020C43FA05F3C01851EBE37101F00045AA
S3150802056007D54FF0000EDCF1000C7EEB00006EEBB7
S315080205700101B1F5801F1BD3B1F5001F0CD3490841
S315080205805FEA30004FEA3C0C04F101044FEA445298
S3150802059012F5800F80F09A80BCF1004F08BF5FEA1F
S315080205A0500C50F1000041EB045141EA050130BDFF
S315080205B05FEA4C0C404141EB0101013C28BFB1F511
S315080205C0801FE9D291F0000F04BF01460020B1FA5C
S315080205D081F308BF2033A3F10B03B3F120020CDA2F
S315080205E00C3208DD02F1140CC2F10C0201FA0CF00D
S315080205F021FA02F10CE002F11402D8BFC2F1200C72
S3150802060001FA02F120FA0CFCDCBF41EA0C01904027
S31508020610E41AA2BF01EB0451294330BD6FEA040470
S315080206201F3C1CDA0C340EDC04F11404C4F120025B
S3150802063020FA04F001FA02F340EA030021FA04F36D
S3150802064045EA030130BDC4F10C04C4F1200220FAC4
S3150802065002F001FA04F340EA0300294630BD21FA02
S3150802066004F0294630BD94F0000F83F4801306BFC8
S3150802067081F480110134013D4EE77FEA645C18BFBC
S315080206807FEA655C29D094EA050F08BF90EA020F53
S3150802069005D054EA000C04BF1946104630BD91EA4B
S315080206A0030F1EBF0021002030BD5FEA545C05D14E
S315080206B04000494128BF41F0004130BD14F580048D
S315080206C03CBF01F5801130BD01F0004545F0FE4101
S315080206D041F470014FF0000030BD7FEA645C1ABF36
S315080206E0194610467FEA655C1CBF0B46024650EA6D
S315080206F0013406BF52EA033591EA030F41F4002199
S3150802070030BD00BF90F0000F04BF0021704730B51E
S315080207104FF4806404F132044FF000054FF00001F3
S3150802072050E700BF90F0000F04BF0021704730B5B4
S315080207304FF4806404F1320410F0004548BF404289
S315080207404FF000013EE700BF42004FEAE2014FEADE
S3150802075031014FEA02701FBF12F07F4393F07F4FB9
S3150802076081F06051704732F07F4208BF704793F0BC
S315080207707F4F04BF41F40021704730B54FF46074CF
S3150802078001F0004521F000411CE700BF50EA0102D2
S3150802079008BF704730B54FF000050AE050EA01027B
S315080207A008BF704730B511F0004502D5404261EBEB
S315080207B041014FF4806404F132045FEA915C3FF42C
S315080207C0D8AE4FF003025FEADC0C18BF03325FEAC9
S315080207D0DC0C18BF033202EBDC02C2F1200300FA7A
S315080207E003FC20FA02F001FA03FE40EA0E0021FA9F
S315080207F002F11444BDE600BF70B54FF0FF0C4CF48D
S31508020800E06C1CEA11541DBF1CEA135594EA0C0F3E
S3150802081095EA0C0F00F0DEF82C4481EA030621EA79
S315080208204C5123EA4C5350EA013518BF52EA0335B4
S3150802083041F4801143F4801338D0A0FB02CE4FF066
S315080208400005E1FB02E506F00042E0FB03E54FF096
S315080208500006E1FB03569CF0000F18BF4EF0010E8E
S31508020860A4F1FF04B6F5007F64F5407404D25FEA8A
S315080208704E0E6D4146EB060642EAC62141EA55513D
S315080208804FEAC52040EA5E504FEACE2EB4F1FD0C7F
S3150802089088BFBCF5E06F1ED8BEF1004F08BF5FEAFD
S315080208A0500E50F1000041EB045170BD06F00046AF
S315080208B046EA010140EA020081EA0301B4EB5C045C
S315080208C0C2BFD4EB0C0541EA045170BD41F4801154
S315080208D04FF0000E013C00F3AB8014F1360FDEBF79
S315080208E0002001F0004170BDC4F10004203C35DA55
S315080208F00C341BDC04F11404C4F1200500FA05F3D8
S3150802090020FA04F001FA05F240EA020001F0004278
S3150802091021F0004110EBD37021FA04F642EB0601EE
S315080209205EEA430E08BF20EAD37070BDC4F10C0418
S31508020930C4F1200500FA04F320FA05F001FA04F2DC
S3150802094040EA020001F0004110EBD37041F10001C8
S315080209505EEA430E08BF20EAD37070BDC4F12005D3
S3150802096000FA05F24EEA020E20FA04F301FA05F23B
S3150802097043EA020321FA04F001F0004121FA04F2E3
S3150802098020EA020000EBD3705EEA430E08BF20EAB3
S31508020990D37070BD94F0000F0FD101F000464000ED
S315080209A041EB010111F4801F08BF013CF7D041EA6F
S315080209B0060195F0000F18BF704703F00046520073
S315080209C043EB030313F4801F08BF013DF7D043EA44
S315080209D00603704794EA0C0F0CEA135518BF95EAFA
S315080209E00C0F0CD050EA410618BF52EA4306D1D181
S315080209F081EA030101F000414FF0000070BD50EAA0
S31508020A00410606BF1046194652EA430619D094EA29
S31508020A100C0F02D150EA013613D195EA0C0F05D113
S31508020A2052EA03361CBF104619460AD181EA030167
S31508020A3001F0004141F0FE4141F470014FF000001F
S31508020A4070BD41F0FE4141F4780170BD70B54FF0BA
S31508020A50FF0C4CF4E06C1CEA11541DBF1CEA13553A
S31508020A6094EA0C0F95EA0C0F00F0A7F8A4EB05041C
S31508020A7081EA030E52EA03354FEA013100F0888013
S31508020A804FEA03334FF0805545EA131343EA1263DC
S31508020A904FEA022245EA111545EA10654FEA002691
S31508020AA00EF000419D4208BF964244F1FD0404F54A
S31508020AB0407402D25B084FEA3202B61A65EB0305A6
S31508020AC05B084FEA32024FF480104FF4002CB6EB63
S31508020AD0020E75EB030E22BFB61A754640EA0C00E3
S31508020AE05B084FEA3202B6EB020E75EB030E22BF23
S31508020AF0B61A754640EA5C005B084FEA3202B6EB64
S31508020B00020E75EB030E22BFB61A754640EA9C0022
S31508020B105B084FEA3202B6EB020E75EB030E22BFF2
S31508020B20B61A754640EADC0055EA060E18D04FEAB0
S31508020B30051545EA16754FEA06164FEAC30343EA50
S31508020B4052734FEAC2025FEA1C1CC0D111F4801F1D
S31508020B500BD141EA00014FF000004FF0004CB6E716
S31508020B6011F4801F04BF01430020B4F1FD0C88BFB5
S31508020B70BCF5E06F3FF6AFAEB5EB030C04BFB6EBC0
S31508020B80020C5FEA500C50F1000041EB045170BDB3
S31508020B900EF0004E4EEA113114EB5C04C2BFD4EBE0
S31508020BA00C0541EA045170BD41F480114FF0000E64
S31508020BB0013C90E645EA060E8DE60CEA135594EAE0
S31508020BC00C0F08BF95EA0C0F3FF43BAF94EA0C0FE3
S31508020BD00AD150EA01347FF434AF95EA0C0F7FF458
S31508020BE025AF104619462CE795EA0C0F06D152EAAC
S31508020BF003353FF4FDAE1046194622E750EA410690
S31508020C0018BF52EA43067FF4C5AE50EA41047FF4A0
S31508020C100DAF52EA43057FF4EBAE12E74FF0FF3C05
S31508020C2006E000BF4FF0010C02E000BF4FF0010CD6
S31508020C304DF804CD4FEA410C7FEA6C5C4FEA430C4F
S31508020C4018BF7FEA6C5C1BD001B050EA410C0CBF9E
S31508020C5052EA430C91EA030F02BF90EA020F002000
S31508020C60704710F1000F91EA030F58BF994208BF67
S31508020C7090422CBFD8176FEAE37040F00100704724
S31508020C804FEA410C7FEA6C5C02D150EA013C07D17B
S31508020C904FEA430C7FEA6C5CD6D152EA033CD3D0C6
S31508020CA05DF8040B704700BF8446104662468C46C0
S31508020CB01946634600E000BF01B5FFF7B7FF0028F3
S31508020CC048BF10F1000F01BD4DF808EDFFF7F4FF1C
S31508020CD00CBF012000205DF808FB00BF4DF808EDA7
S31508020CE0FFF7EAFF34BF012000205DF808FB00BFCA
S31508020CF04DF808EDFFF7E0FF94BF012000205DF8EC
S31508020D0008FB00BF4DF808EDFFF7CEFF94BF0120A0
S31508020D1000205DF808FB00BF4DF808EDFFF7C4FF99
S31508020D2034BF012000205DF808FB00BF4FEA410CE2
S31508020D307FEA6C5C02D150EA013C0AD14FEA430CC5
S31508020D407FEA6C5C02D152EA033C02D14FF0000002
S31508020D5070474FF0010070474FEA410212F5001240
S31508020D6015D211D56FF47873B3EB625212D94FEAE2
S31508020D70C12343F0004343EA505311F0004F23FACC
S31508020D8002F018BF404270474FF00000704750EA21
S31508020D90013005D111F0004008BF6FF000407047DE
S31508020DA04FF00000704700BF0348044B834202D04D
S31508020DB0034B03B118477047CC060020CC06002027
S31508020DC0000000000548064B1B1AD90F01EBA301C8
S31508020DD0491002D0034B03B118477047CC060020CE
S31508020DE0CC0600200000000010B5064C237843B953
S31508020DF0FFF7DAFF044B13B10448AFF3008001236F
S31508020E00237010BDCC060020000000008CB8020832
S31508020E1008B5054B1BB105490548AFF30080BDE887
S31508020E200840FFF7CFBF00BF00000000D006002031
S31508020E308CB8020800BF704700BF704700BF7047F2
S31508020E4000BF704700B585B000BF03F051FE03F03E
S31508020E5065FE184B1B680193174B1B680293174BC9
S31508020E601B6803930AE00023154A136082784178C7
S31508020E70007803F09DFE002003F0B2FE00F02EFB80
S31508020E80104B1B6803F57A739842F7D30D4A136021
S31508020E9000F024FB01460C4803F07AFD084B1B6858
S31508020EA004AA02EB830252F80C0C022BDBD00133A4
S31508020EB0DAE700BF14000020100000200C00002012
S31508020EC0E8060020EC060020D0B802082DE9F04317
S31508020ED08DB000240794089409940A940B943D4B08
S31508020EE0DA6C42F00402DA64DA6C02F00402019265
S31508020EF0019ADA6C42F08002DA64DA6C02F0800255
S31508020F000292029ADA6C42F00102DA64DA6C02F0B0
S31508020F1001020392039ADA6C42F00202DA64DA6C8C
S31508020F2002F002020492049ADA6C42F01002DA64BF
S31508020F30DA6C02F010020592059ADA6C42F008029F
S31508020F40DA64DB6C03F008030693069BDFF89090DD
S31508020F5001222021484600F0E3FEDFF88880224677
S31508020F602D21404600F0DCFE1B4F01224FF4E061C2
S31508020F70384600F0D5FE194E22468021304600F04A
S31508020F80CFFE202307930125089509940A9407A9F9
S31508020F90484600F039FD2D230793089509940A94CB
S31508020FA007A9404600F030FD4FF4E0630793089521
S31508020FB009940A9407A9384600F026FD8023079368
S31508020FC0089509940A9407A9304600F01DFD0DB04C
S31508020FD0BDE8F0830010024000100048000C0048EB
S31508020FE0000800480004004800B583B00A4B9A6C12
S31508020FF042F001029A649B6C03F001030193019B80
S31508021000002205210B2000F08DFA0B2000F0D0FA01
S3150802101003B05DF804FB00BF0010024072B6FEE79B
S3150802102000B58FB000230A930B930C930D93079385
S3150802103008930993009301930293039304930593E8
S3150802104006931E484FF08042026043608360642222
S31508021050C2600361836102F045FA28BB4FF48053EC
S315080210600A930AA9154802F0A1FDF8B9134802F035
S31508021070E5FAE8B900230793099307A90F4803F08D
S3150802108047FBB8B9602300930023019302930493A4
S3150802109008226946094802F0E9FB68B9074800F0E0
S315080210A031F90FB05DF804FBFFF7B8FFFFF7B6FF9B
S315080210B0FFF7B4FFFFF7B2FFFFF7B0FF9C07002068
S315080210C008B51048104B03604FF48273436000233F
S315080210D083604FF4E062C260036143614FF40072B9
S315080210E082611822C2610362436283620722C26274
S315080210F003630823436301F06DFC00B908BDFFF7DB
S315080211008DFF00BF380700200030014000B597B0B8
S315080211104422002105A804F055F9002300930193FF
S315080211200293039304934FF4007000F01BFE20BB56
S31508021130012205924FF48033069302230F9303216B
S31508021140109111920A22129213931493159305A8D9
S3150802115000F0FCFE98B90F230093032301930023A2
S3150802116002934FF48063039304930421684601F0C3
S315080211700BFB30B917B05DF804FBFFF74FFFFFF71B
S315080211804DFFFFF74BFF000000B583B0FFF752FE95
S3150802119000F082F9FFF750FEFFF7B8FFFFF74EFEA1
S315080211A0FFF794FEFFF720FFFFF73AFFFFF788FFE6
S315080211B006494A68CB68096900910549002004F086
S315080211C0A9F8FFF73DFEFFF73DFE00BF00300040DD
S315080211D0F8B8020808B50A460146014803F044FC75
S315080211E024B9020882B00A4B1A6E42F001021A6644
S315080211F01A6E02F001020092009A9A6D42F080522B
S315080212009A659B6D03F080530193019B02B0704768
S315080212100010024010B588B0002303930493059387
S31508021220069307930268174B9A4201D008B010BD7D
S3150802123003F560431A6E42F480521A661A6E02F475
S3150802124080520192019ADA6C42F00102DA64DB6C8E
S3150802125003F001030293029BE02303930223049300
S31508021260032306930524079403A94FF0904000F040
S31508021270CBFB00222146232000F054F9232000F05C
S3150802128097F9D3E7003001400368B3F1804F00D0E5
S31508021290704710B582B0044603F504339A6D42F0DE
S315080212A001029A659B6D03F001030193019B1348A2
S315080212B0134B036004234360102383600023C36037
S315080212C0802202614FF4007242614FF40062826129
S315080212D0C361036200F0B2F960B9084BE3629C622B
S315080212E0002205211C2000F01DF91C2000F060F9DF
S315080212F002B010BDFFF792FEEFE700BFF00600202E
S315080213000800024000B587B00023019302930393B5
S31508021310049305930368B3F1804F02D007B05DF8D2
S3150802132004FB03F50433DA6C42F00102DA64DB6C7F
S3150802133003F001030093009B042301930223029303
S315080213400123059301A94FF0904000F05DFBE5E704
S31508021350FEE7FEE7FEE7FEE7FEE7704770477047DF
S3150802136008B500F0AFF808BD08B5024800F0EAFA79
S3150802137008BD00BFF006002008B500BF014801F00D
S3150802138050FF08BD9C07002008B5024801F094FCEE
S3150802139008BD00BF3807002010B503460C4A0D49A0
S315080213A00D48006840B10C4800680344521A93423B
S315080213B006D8094A136010BD0748084C0460F2E7CC
S315080213C003F0B8FF0C2303604FF0FF30F3E700BFCA
S315080213D00000052000040000E8070020B81E0020CF
S315080213E0034AD2F8883043F47003C2F8883070474B
S315080213F000ED00E0DFF834D0FFF7F2FF0C480D49A4
S315080214000D4A002302E0D458C4500433C4188C424F
S31508021410F9D30A4A0A4C002301E013600432A242B5
S31508021420FBD304F021F8FFF7AFFEFEE70000052024
S3150802143000000020CC060020D0C10208CC060020FD
S31508021440B81E0020FEE70000104B1B780BB90120DE
S31508021450704710B504464FF47A70B0FBF3F30C4AA2
S315080214601068B0FBF3F000F0BBF868B90F2C01D98D
S3150802147001200AE0002221464FF0FF3000F052F820
S31508021480044B1C60002000E0012010BD040000206F
S31508021490000000200800002010B5094A136843F42A
S315080214A080731360032000F01FF80F20FFF7CCFFAC
S315080214B010B10124204610BD0446FFF793FEF9E752
S315080214C000200240034B1B78034A11680B44136041
S315080214D0704700BF04000020EC070020014B186883
S315080214E0704700BFEC07002010B50446C31E042B44
S315080214F00FD80A4AD36823F4E0631B041B0C2402A0
S3150802150004F4E064234343F0BF6343F40033D36037
S3150802151010BDA6210248FFF75DFEEAE700ED00E0EE
S3150802152074B9020870B505460C4616460F2A25D820
S315080215300F2C28D81B4BDB68C3F30223C3F107021F
S31508021540042A28BF0422191D062921D9033B4FF074
S31508021550FF3101FA02F224EA02049C40994026EA83
S31508021560010644EA0602002D14DB1201D2B205F185
S31508021570604505F5614585F8002370BDBE210A4818
S31508021580FFF728FED4E7BF210748FFF723FED1E776
S315080215900023DCE705F00F051201D2B2034B5A55B8
S315080215A0EBE700BF00ED00E074B9020814ED00E0B5
S315080215B010B5041E0ADB002C07DB04F01F026409BF
S315080215C001239340044A42F8243010BDD22103482D
S315080215D0FFF700FEEFE700BF00E100E074B902087A
S315080215E00138B0F1807F0BD24FF0E0235861054AEB
S315080215F0F02182F823100020986107221A617047A9
S315080216000120704700ED00E030B4446C04F01C0C75
S31508021610012404FA0CF4056C6C6004686360836840
S31508021620102B05D0036899600368DA6030BC7047EE
S3150802163003689A600368D960F8E70000002800F09A
S31508021640F98010B5044603687B4A93422BD01432BC
S31508021650934228D01432934225D01432934222D090
S31508021660143293421FD0143293421CD0143293423E
S3150802167019D002F56272934215D01432934212D0EF
S31508021680143293420FD0143293420CD0143293423E
S3150802169009D01432934206D01432934203D0A521BC
S315080216A06648FFF797FDA36823B1102B02D0B3F55E
S315080216B0804F76D1E368402B01D0002B76D123697F
S315080216C0802B01D0002B76D163692BB1B3F5807FCD
S315080216D002D0B3F5007F73D1A3692BB1B3F5806F3E
S315080216E002D0B3F5006F70D1E3690BB1202B71D12B
S315080216F0236A43B1B3F5805F05D0B3F5005F02D024
S31508021700B3F5405F6BD16368072B6DD821684C4BE4
S3150802171099426ED84B4B0B444B4AA2FB03231B0937
S315080217209B006364494B2364022384F825300A68C4
S3150802173022F4FF4222F07002A368E068034320699C
S31508021740034360690343A0690343E0690343206ACC
S31508021750034313430B60A368B3F5804F19D0226C79
S315080217603A4B9A4250D0394BD3F8A824616C01F00F
S315080217701C000F21814022EA0102C3F8A824D3F8EB
S31508021780A8246168606C00F01C0081400A43C3F813
S31508021790A8240020E063012384F8253084F8240075
S315080217A010BDA6212548FFF715FD83E7A721234883
S315080217B0FFF710FD83E7A8212048FFF70BFD83E713
S315080217C0A9211E48FFF706FD86E7AA211B48FFF74F
S315080217D001FD89E7AB211948FFF7FCFC88E7AC2134
S315080217E01648FFF7F7FC8EE7AE211448FFF7F2FC1E
S315080217F08CE7174B0B44144AA2FB03231B099B00D5
S315080218006364144B23648FE7D3F8A820616C01F054
S315080218101C000F21814022EA0102C3F8A820D3F84E
S31508021820A8206168606C00F01C0081400A43C3F876
S31508021830A820AEE70120704708000240E8B902086E
S3150802184007040240F8FFFDBFCDCCCCCC0000024015
S31508021850F8FBFDBF00040240F8B504460E461746DB
S315080218601D465A1E4FF6FE739A4210D894F8243033
S31508021870012B3BD0012384F8243094F82530DBB2BF
S31508021880012B0AD0002384F824300220F8BD40F246
S31508021890DF111748FFF79EFCE8E7022384F8253094
S315080218A00023E3632268136823F0010313602B46BF
S315080218B03A4631462046FFF7A7FE236B5BB12268FC
S315080218C0136843F00E0313602268136843F001039A
S315080218D013600020DAE72268136823F00403136012
S315080218E02268136843F00A031360EDE70220CDE786
S315080218F0E8B9020808B590F82530DBB2022B03D006
S315080219000423C363012008BD0268136823F00E038B
S3150802191013600268136823F001031360436C03F033
S315080219201C03016C012202FA03F34B6080F825209E
S31508021930002380F82430836B13B198470020E2E72E
S315080219400020E0E738B5036C196804682568436C1B
S3150802195003F01C0304229A400A4215D015F0040F1C
S3150802196012D0236813F0200F03D1236823F004034F
S315080219702360436C03F01C02016C042393404B6002
S31508021980036B03B1984738BD02229A400A421CD01B
S3150802199015F0020F19D0236813F0200F06D1236819
S315080219A023F00A032360012380F82530436C03F0F1
S315080219B01C02016C022393404B60002380F82430FA
S315080219C0C36A002BDFD09847DDE7082202FA03F341
S315080219D00B42D8D015F0080FD5D0236823F00E0392
S315080219E02360436C03F01C03016C012202FA03F321
S315080219F04B60C26380F82520002380F82430436BAD
S31508021A00002BC0D09847BEE72DE9F04182B0804648
S31508021A100C46B0F1904F22D05E4B98421FD003F588
S31508021A20806398421BD003F58063984217D003F56A
S31508021A308063984213D003F5806398420FD003F56A
S31508021A40806398420BD003F58063984207D003F56A
S31508021A508063984203D0AA214F48FFF7BBFB23684D
S31508021A609AB212B11B0C1B041BB1AB214A48FFF7F1
S31508021A70B1FB6368012B24D9B3F5901F21D012D884
S31508021A80122B0CD8022B05D3444A22FA03F313F07D
S31508021A90010F16D1AC214048FFF79CFB11E0B3F5C4
S31508021AA0881FF7D10DE0B3F5441F0AD003D9B3F561
S31508021AB0481FEFD105E0B3F5041F02D0B3F5081F9E
S31508021AC0E8D10025A1E0E368032B17D8D8F8082047
S31508021AD0690003238B4022EA0302E3688B4013431F
S31508021AE0C8F80830D8F8042022EA07026368C3F364
S31508021AF00013AB401343C8F8043095E0BB212648CF
S31508021B00FFF768FBE2E7DC212348FFF763FB94E073
S31508021B10B8F1904F22D01F4B98451FD003F580632A
S31508021B2098451BD003F58063984517D003F5806363
S31508021B30984513D003F5806398450FD003F5806363
S31508021B4098450BD003F58063984507D003F5806363
S31508021B50984503D0E8211048FFF73CFB23690F2B71
S31508021B6010D8EA08083258F8220005F00701890059
S31508021B700F238B4020EA030023698B40034348F86E
S31508021B8022306CE0E9210448FFF724FBE9E7072342
S31508021B9007E000BF0004004858BA02080C0806000D
S31508021BA000238B4003430232594941F82230594BEC
S31508021BB09A68F34322EA0601606810F4801F01D08E
S31508021BC046EA0201534A9160D26803EA0201606852
S31508021BD010F4001F01D046EA02014E4AD16052684B
S31508021BE003EA0201606810F4003F01D046EA0201E6
S31508021BF0484A516012681340616811F4803F01D067
S31508021C0046EA0203434A13600135266836FA05F2A4
S31508021C107BD00127AF403E40F6D0636803F003034A
S31508021C20013B012B7FF64FAF636803F00303032BD7
S31508021C300FD0A368022B3FF666AFD8F80C206900CE
S31508021C4003238B4022EA0302A3688B401343C8F896
S31508021C500C30636803F00303022B3FF459AFD8F83C
S31508021C600020690003238B4022EA0302636803F01B
S31508021C7003038B401343C8F80030636813F4403FEC
S31508021C80C2D0254B1A6E42F001021A661B6E03F089
S31508021C9001030193019BAA08911C1D4B53F82100CD
S31508021CA005F0030189000F238B4020EA0300B8F1EF
S31508021CB0904F3FF475AF194B98451AD003F58063D8
S31508021CC0984518D003F58063984516D003F58063C6
S31508021CD0984514D003F58063984512D003F58063BE
S31508021CE0984510D003F5806398453FF450AF082312
S31508021CF057E7012355E7022353E7032351E7042352
S31508021D004FE705234DE706234BE702B0BDE8F0810E
S31508021D10000001400004014000100240000400488F
S31508021D2070B5054614460E4621B1012C08D86CB189
S31508021D30AE6170BD4FF4D7710548FFF74BFAF4E769
S31508021D4040F2AF110248FFF745FAF0E7AE62F0E754
S31508021D5058BA0208024B186800F4C060704700BF00
S31508021D600070004010B50446B0F5007F02D0B0F509
S31508021D70806F12D1B4F5007F14D0214B1B6803F48F
S31508021D80C063B3F5806F39D01D4A136823F4C06364
S31508021D9043F480631360002010BDA7211948FFF79A
S31508021DA019FAE7E7164B1B6803F4C063B3F5007F1D
S31508021DB020D0134A136823F4C06343F400731360F4
S31508021DC0114B1B68322202FB03F3104AA2FB0323C0
S31508021DD09B0C013300E0013B094A526912F4806FF9
S31508021DE001D0002BF7D1064B5B6913F4806F03D140
S31508021DF00020D1E70020CFE70320CDE70020CBE77C
S31508021E0000700040C8BA02080000002083DE1B43A7
S31508021E1030B583B00446204B9B6D13F0805F0BD020
S31508021E20FFF798FFB0F5007F17D0802C1FD82DD06A
S31508021E30702C2DD000211BE0174DAB6D43F080535B
S31508021E40AB65AB6D03F080530193019BFFF782FFED
S31508021E50AB6D23F08053AB65E4E7802C03D9A02C45
S31508021E6003D9022104E0002102E0012100E0032156
S31508021E700A4A136823F007030B431360136803F037
S31508021E8007038B4206D1002003B030BD0221EFE7DB
S31508021E900121EDE70120F7E7001002400020024089
S31508021EA0274A9368D26802F0030213F00C030AD099
S31508021EB00C2B06D0042B1FD0082B20D0002002465C
S31508021EC010E0012AF6D11E4A126812F0080F0CD148
S31508021ED01B4AD2F89420C2F303221A4951F8222047
S31508021EE043B100200C2B0DD07047154A1268C2F375
S31508021EF00312F2E71046F5E713480022F2E7124802
S31508021F000022EFE70E4BDB6803F00303023B012BCB
S31508021F1013D90B49CB68C3F302130133C868C0F35C
S31508021F20062002FB00F0B0FBF3F0CB68C3F3416373
S31508021F3001335B00B0FBF3F0D6E7034AE9E700BFDB
S31508021F400010024044B902080024F400002800F0F8
S31508021F50FF83F0B583B00446036813B133F03F0339
S31508021F6023D1964B9D6805F00C05DE6806F003063C
S31508021F70236813F0100F00F09680A369012B1AD874
S31508021F80E369FF2B1DD8236A2BB3602B23D03ED8D7
S31508021F90302B20D01BD9402B1DD0502B1BD040F202
S31508021FA0AB118748FFF716F915E04FF4D07184484C
S31508021FB0FFF710F9D5E740F2A9118148FFF70AF9A8
S31508021FC0DEE74FF4D5717E48FFF704F9DBE7102BFD
S31508021FD001D0202BE3D14DB30C2D25D0A369002BBC
S31508021FE000F0D280754A136843F001031360FFF7C5
S31508021FF075FA0746714B1B6813F0020F40F0B18061
S31508022000FFF76CFAC01B0228F4D90320B3E3902B1E
S31508022010E1D004D9A02BDED0B02BDCD0BFE7702BE1
S31508022020D9D0802BD7D0BAE7012ED7D1634B1B68FC
S3150802203013F0020F03D0A369002B00F09383206AE2
S315080220405E4B1B6813F0080F65D05C4B1B6803F0E8
S31508022050F003984266D8594B1A6842F008021A6089
S315080220601A6822F0F002216A0A431A605A6822F4B0
S315080220707F42E16942EA01225A60002D6AD0FFF7DF
S315080220800FFF4E4B9B68C3F303134E4AD35C03F010
S315080220901F03D8404C4B18604C4B1868FFF7D4F90D
S315080220A0002840F06883236813F0010F00F09C8033
S315080220B063682BB1B3F5803F02D0B3F5A02F77D171
S315080220C0082D00F088800C2D00F082806368B3F535
S315080220D0803F00F0B080B3F5A02F00F0B280374BF6
S315080220E01A6822F480321A601A6822F480221A6068
S315080220F06368002B00F0B280FFF7F0F907462F4B12
S315080221001B6813F4003F6FD1FFF7E8F9C01B642878
S31508022110F5D903202FE3294BD3F894301B0903F092
S31508022120F00396E7FFF774FE002840F01D83234B61
S315080221301A6842F008021A601A6822F0F002216A46
S315080221400A431A605A6822F47F42E16942EA012286
S315080221505A6094E7206AFFF75BFE00288FD00120B9
S3150802216009E3164B1A6842F008021A601A6822F046
S31508022170F002216A0A431A605A6822F47F42E16928
S3150802218042EA01225A608EE70C4A136823F00103D9
S315080221901360FFF7A3F90746084B1B6813F0020FF3
S315080221A081D0FFF79BF9C01B0228F5D90320E2E28A
S315080221B040F217210248FFF70DF881E700100240A6
S315080221C03CBB020834B902080000002008000020BF
S315080221D0032E7FF47BAFAB4B1B6813F4003F03D08F
S315080221E06368002B00F0C282236813F0020F63D0E3
S315080221F0E36813B1B3F5807F3FD123697F2B42D8B9
S31508022200042D48D00C2D44D0E368002B7ED09D4A7D
S31508022210136843F480731360FFF760F90646994B17
S315080222201B6813F4806F68D1FFF758F9801B0228E0
S31508022230F5D903209FE2934A136843F48033136067
S3150802224056E703F18043A3F53C331A6842F4802229
S315080222501A601A6842F480321A6049E7FFF73EF9B3
S315080222600746884B1B6813F4003FBDD0FFF736F9C3
S31508022270C01B6428F5D903207DE240F24A21824830
S31508022280FEF7A8FFB9E740F24B217F48FEF7A2FF07
S31508022290B6E7022EB8D17B4B1B6813F4806F03D0C6
S315080222A0E368002B00F06482764A536823F0FE4303
S315080222B0216943EA01635360236813F0080F56D075
S315080222C06369012B36D86369002B39D06D4AD2F877
S315080222D0943043F00103C2F89430FFF7FFF806463C
S315080222E0684BD3F8943013F0020F40D1FFF7F6F893
S315080222F0801B0228F4D903203DE2624A536823F080
S31508022300FE43216943EA01635360D5E75D4A1368D0
S3150802231023F480731360FFF7E1F80646594B1B68EE
S3150802232013F4806FC8D0FFF7D9F8801B0228F5D9B5
S31508022330032020E240F28B215348FEF74BFFC2E707
S31508022340504AD2F8943023F00103C2F89430FFF7CA
S31508022350C5F806464B4BD3F8943013F0020F06D055
S31508022360FFF7BCF8801B0228F4D9032003E223688E
S3150802237013F0040F00F08D80A368012B01D9052BF9
S315080223803BD1404B9B6D13F0805F3CD13D4B9A6D20
S3150802239042F080529A659B6D03F080530193019B2C
S315080223A001263A4B1B6813F4807F2ED0A368012BB3
S315080223B03FD0052B45D0334BD3F8902022F00102AB
S315080223C0C3F89020D3F8902022F00402C3F8902094
S315080223D0A368002B43D0FFF781F80746294BD3F8A9
S315080223E0903013F0020F53D1FFF778F8C01B41F271
S315080223F088339842F2D90320BDE140F2DE21224811
S31508022400FEF7E8FEBDE70026CBE7204A136843F449
S3150802241080731360FFF762F807461C4B1B6813F4B8
S31508022420807FC3D1FFF75AF8C01B0228F5D90320CB
S31508022430A1E1144AD2F8903043F00103C2F8903071
S31508022440C6E7104BD3F8902042F00402C3F8902056
S31508022450D3F8902042F00102C3F89020B8E7FFF7BC
S315080224603DF80746074BD3F8903013F0020F0FD00A
S31508022470FFF734F8C01B41F288339842F2D9032099
S3150802248079E100BF001002403CBB02080070004020
S31508022490FEB9236813F0200F3ED0636A012B1ED8BB
S315080224A0636A13B3AB4AD2F8983043F00103C2F811
S315080224B09830FFF713F80646A64BD3F8983013F070
S315080224C0020F29D1FFF70AF8801B0228F4D9032044
S315080224D051E1A04A936D23F080539365D9E740F200
S315080224E043319D48FEF776FEDAE79A4AD2F89830E3
S315080224F023F00103C2F89830FEF7F0FF0646954B23
S31508022500D3F8983013F0020F06D0FEF7E7FF801BC8
S315080225100228F4D903202EE1A36A022B1DD8A36A46
S31508022520002B00F02781022B1DD00C2D00F02981EB
S31508022530884A136823F080731360FEF7CFFF0446B8
S31508022540844B1B6813F0007F00F0FB80FEF7C6FF82
S31508022550001B0228F4D903200DE14FF45B717E4873
S31508022560FEF738FEDBE7E36A032B3AD8236B013B17
S31508022570072B3CD8636B083B4E2B3ED8A36B023B1A
S315080225801D2B40D8E36B022B08D0082B41D84FF4F9
S31508022590A87222FA03F313F0010F3AD0236C022B26
S315080225A008D0082B3BD84FF4A87222FA03F313F08B
S315080225B0010F34D0674BDB6803F00301E26A9142EC
S315080225C033D00C2D00F0D980624B1B6813F0806F54
S315080225D040F0D5805F4B1B6813F0805F4FD0012017
S315080225E0C9E04FF45D715C48FEF7F4FDBEE740F2C0
S315080225F075315948FEF7EEFDBCE740F2763156488A
S31508022600FEF7E8FDBAE74FF45E715348FEF7E2FDBE
S31508022610B8E740F27A315048FEF7DCFDBEE740F2F1
S315080226207B314D48FEF7D6FDC4E703F07002216BF5
S315080226300139B2EB011FC4D103F4FE42616BB2EB5E
S31508022640012FBED103F07842A16BB2EBC16FB8D1AC
S3150802265003F4C001E26B5208013AB1EB425FB0D112
S3150802266003F0C063226C5208013AB3EB426FA8D159
S31508022670384B1B6813F0007F49D000207BE0354AAF
S31508022680136823F080731360FEF728FF0546314B63
S315080226901B6813F0007F06D0FEF720FF401B0228B6
S315080226A0F5D9032067E02B4AD3682C491940E36A17
S315080226B0206B013843EA0013606B43EA0023E06BA0
S315080226C04008013843EA4053206C4008013843EA7F
S315080226D04063A06B43EAC0631943D160136843F0B1
S315080226E080731360D36843F08073D360FEF7F6FEF7
S315080226F00446184B1B6813F0007F06D1FEF7EEFE60
S31508022700001B0228F5D9032035E0002033E0114BDF
S315080227101A6842F080721A60DA6842F08072DA60E9
S31508022720FEF7DCFE04460B4B1B6813F0007F06D14E
S31508022730FEF7D4FE031B022BF5D903201BE000206B
S3150802274019E0044AD168064B0B40D360002012E018
S3150802275001207047001002403CBB02088C809D0194
S31508022760FCFFEEFE012006E0012004E0012002E063
S31508022770012000E0002003B0F0BD0120FBE70120A4
S31508022780F9E70120F7E700BF002800F00F8170B5CE
S315080227900D4604460368013B0E2B22D8042D26D883
S315080227A0864B1B6803F00703AB420BD2834A1368B6
S315080227B023F007032B431360136803F00703AB42A6
S315080227C040F0F680236813F0020F27D0A368C3B13E
S315080227D0C02B16D037D8A02B13D00ED9B02B10D0B9
S315080227E037E040F257417648FEF7F4FCD6E74FF455
S315080227F08B617348FEF7EEFCD2E7802B01D0902B53
S3150802280027D1A2686F4B9B6803F0F0039A4205D959
S315080228106C498B6823F0F0031A438A60236813F025
S31508022820010F50D06368032B19D86368032B1CD099
S31508022830022B3AD0002B3FD1624A126812F0020FDD
S3150802284019D10120A5E0E02BDBD0F02BD9D0D02B73
S31508022850D7D04FF48E615A48FEF7BCFCD1E740F256
S315080228607B415748FEF7B6FCDFE7564A126812F074
S31508022870007F00F09F8053498A6822F003021343BF
S315080228808B60FEF72BFE06464E4B9B6803F00C0345
S315080228906268B3EB820F16D0FEF720FE801B41F268
S315080228A088339842F0D9032073E0464A126812F434
S315080228B0003FE0D101206CE0424A126812F4806FB0
S315080228C0D9D1012065E0236813F0020F0CD0A26863
S315080228D03C4B9B6803F0F0039A4205D239498B6850
S315080228E023F0F0031A438A60344B1B6803F007038C
S315080228F0AB420AD9314A136823F007032B43136004
S31508022900136803F00703AB4256D1236813F0040F8A
S3150802291014D0E3685BB1B3F5806F08D0B3F5A06F46
S3150802292005D0B3F5C06F02D0B3F5E06F32D1254AB0
S31508022930936823F4E063E1680B439360236813F01A
S31508022940080F15D023695BB1B3F5806F08D0B3F5CC
S31508022950A06F05D0B3F5C06F02D0B3F5E06F1FD1F3
S31508022960184A936823F46053216943EAC1039360C2
S31508022970FFF796FA134B9B68C3F30313124AD35C09
S3150802298003F01F03D840114B1860114B1868FEF765
S315080229905BFD70BD40F2F3410948FEF71BFCC6E732
S315080229A040F2FA410648FEF715FCD9E701207047BE
S315080229B00120EEE70120ECE70120EAE700200240C9
S315080229C03CBB02080010024034B90208000000208D
S315080229D008000020002800F0678110B50446036845
S315080229E06F4A93420CD0A2F57842934208D002F578
S315080229F08062934204D040F245116A48FEF7EAFB28
S31508022A00636813B1B3F5827F6AD1A3682BB1B3F5B4
S31508022A10806F02D0B3F5004F68D1E368B3F5706FE3
S31508022A2023D0B3F5606F20D0B3F5506F1DD0B3F540
S31508022A30406F1AD0B3F5306F17D0B3F5206F14D0A4
S31508022A40B3F5106F11D0B3F5006F0ED0B3F5E06F82
S31508022A500BD0B3F5C06F08D0B3F5A06F05D0B3F5A8
S31508022A60806F02D0B3F5407F46D1A369B3F5007FE4
S31508022A7003D013B1B3F5802F44D1636B082B01D071
S31508022A80002B45D1E36993B1182B47D9382B09D8BE
S31508022A90202B07D3203B4FF0013222FA03F313F01F
S31508022AA0010F04D140F24B113E48FEF793FB236A0D
S31508022AB00BB1802B3BD1636A0BB1102B3DD1636AF4
S31508022AC0002B73D123690BB1022B3CD16369012B0D
S31508022AD03FD86368B3F5827F41D00023E3617DE086
S31508022AE04FF4A3712F48FEF775FB8EE740F24711A4
S31508022AF02C48FEF76FFB90E74FF4A4712948FEF7BE
S31508022B0069FBB2E740F249112648FEF763FBB4E7D0
S31508022B104FF4A5712348FEF75DFBB3E7082BC1D333
S31508022B20214A22FA03F313F0010FBBD0BFE74FF491
S31508022B30A6711C48FEF74EFBBDE740F24D11194837
S31508022B40FEF748FBBBE74FF4A8711648FEF742FBAF
S31508022B50BCE740F251111348FEF73CFBB9E7E369BB
S31508022B60002B3BD0182B11D9382B09D8202B07D389
S31508022B70203B4FF0013222FA03F313F0010F2DD155
S31508022B8040F255110748FEF725FB27E0082BF7D335
S31508022B90054A22FA03F313F0010FF1D01EE000BF33
S31508022BA000300140ACBB020800010101E36993B1A0
S31508022BB0182B67D9382B09D8202B07D3203B4FF07F
S31508022BC0013222FA03F313F0010F04D140F25F1126
S31508022BD03648FEF7FFFA0023236163610023A362E6
S31508022BE094F85D30002B56D0022384F85D302268B3
S31508022BF0136823F040031360E368B3F5E06F50D916
S31508022C000022B3F5706F04D0B3F5E06F01D000234C
S31508022C10A362636803F48273A16801F404410B4357
S31508022C20216901F002010B43616901F001010B43BD
S31508022C30A16901F400710B43E16901F038010B4304
S31508022C40216A01F080010B43A16A01F40051206850
S31508022C500B430360638B03F00403616A01F01001FE
S31508022C600B43616B01F008010B43E16801F47061E3
S31508022C700B4321681A434A6000202066012384F820
S31508022C805D3010BD082BA1D3094A22FA03F313F0CB
S31508022C90010F9BD09FE784F85C302046FEF7BAFA0C
S31508022CA0A2E74FF48052ACE701207047ACBB02089A
S31508022CB0000101017047000010B584B0044602689D
S31508022CC05168936803F04100012867D013F0020F98
S31508022CD002D011F0800F68D113F4B07F68D011F0DA
S31508022CE0200F65D013F0400F0FD094F85D00C0B2E4
S31508022CF003285FD0206E40F0040020660020009072
S31508022D00D068009090680090009813F0200F0CD0BD
S31508022D10206E40F001002066002002909068029022
S31508022D20106820F040001060029A13F4807F09D0E0
S31508022D30236E43F0080323660023039323689B68E4
S31508022D400393039B236E002B32D02268536823F029
S31508022D50E0035360012384F85D3011F0030F31D08C
S31508022D602268536823F003035360A36D4BB1174AD5
S31508022D709A63A06DFEF7BEFD18B1236E43F04003B9
S31508022D802366636DA3B1114A9A63606DFEF7B2FDBD
S31508022D9070B1236E43F04003236609E011F0400F39
S31508022DA094D0E36C2046984702E0236D2046984764
S31508022DB004B010BD00230193D3680193936801936D
S31508022DC0019BF5E72046FFF775FFF1E7D12D0208CB
S31508022DD008B5806A0023A0F84630C387FFF76AFF62
S31508022DE008BD000030B4036A23F480330362036A21
S31508022DF04468426D22F4803222F070020D6815434F
S31508022E0023F400338A6843EA02430F4A90420FD0FA
S31508022E1002F5006290420BD002F54062904207D05A
S31508022E2002F58062904203D002F58062904204D194
S31508022E3024F480344A6944EA0224446045654A68AF
S31508022E408265036230BC7047002C014030B4036AC5
S31508022E5023F480130362036A4468426D22F0807287
S31508022E6022F4E0420D6842EA052223F400138D6833
S31508022E7043EA05530F4DA8420FD005F50065A8424F
S31508022E800BD005F54065A84207D005F58065A8422E
S31508022E9003D005F58065A84204D124F480244D693F
S31508022EA044EA8524446042654A68C265036230BCC6
S31508022EB0704700BF002C014010B4036A046A24F06C
S31508022EC001040462846924F0F00C4CEA021223F02D
S31508022ED00A030B43826103625DF8044B704710B420
S31508022EE0036A23F0100303628469036A24F4704CAC
S31508022EF04CEA023223F0A00343EA01138261036219
S31508022F005DF8044B7047836823F070030B4343F064
S31508022F1007038360704700002DE9F04104460D4619
S31508022F20036A23F001030362026A4768836923F48A
S31508022F30803323F07303096841EA030822F0020387
S31508022F40AE681E432C4B98420FD003F50063984295
S31508022F500BD003F54063984207D003F58063984285
S31508022F6003D003F58063984209D1EB680BB1082BAD
S31508022F7030D126F00806EB68334323F004061E4BCD
S31508022F809C420FD003F500639C420BD003F54063C5
S31508022F909C4207D003F580639C4203D003F5806305
S31508022FA09C420FD1AB69B3F5007F00D0C3B96B69F8
S31508022FB0B3F5807F00D0CBB927F440776B693B43E2
S31508022FC0AF691F436760C4F818806B68636326623B
S31508022FD0BDE8F08141F66E310848FEF7FBF8C8E70E
S31508022FE041F67B310548FEF7F5F8E0E741F67C3114
S31508022FF00248FEF7EFF8DFE7002C01401CBC020886
S315080230002DE9F04104460D46036A23F480730362F0
S31508023010066A4768C36923F4803323F073030A6890
S3150802302042EA030826F400768B6846EA0326284B0A
S31508023030984203D003F5006398420AD1EB680BB1B4
S31508023040082B33D126F40066EB6846EA032626F4F3
S3150802305080661F4B9C420FD003F500639C420BD03F
S3150802306003F540639C4207D003F580639C4203D074
S3150802307003F580639C4211D1AB69B3F5007F00D09A
S31508023080D3B96B69B3F5807F00D0DBB927F4405713
S315080230906B6947EA0317AB6947EA03176760C4F81F
S315080230A01C806B68E3632662BDE8F08141F6044141
S315080230B00848FEF78FF8C5E741F611410548FEF7BD
S315080230C089F8DEE741F612410248FEF783F8DDE7A2
S315080230D0002C01401CBC02082DE9F04104460F46AB
S315080230E0036A23F480530362056AD0F80480C3692D
S315080230F023F0807323F4E6430A6843EA022625F49A
S3150802310000558B6845EA0335154B98420FD003F5EF
S31508023110006398420BD003F54063984207D003F543
S315080231208063984203D003F58063984209D17B698C
S31508023130B3F5807F00D063B928F480487B6948EAF2
S315080231408318C4F80480E6617B6823642562BDE8B7
S31508023150F08141F650410348FEF73CF8ECE700BF20
S31508023160002C01401CBC0208704770477047704724
S3150802317010B5846A636A83420ED0A36A834214D066
S31508023180E36A83421AD0236B834220D0204601F099
S31508023190A7FD0023237710BD01232377C369002BDC
S315080231A0F4D1012384F83E30F0E702232377C3697A
S315080231B0002BEBD1012384F83F30E7E7042323777A
S315080231C0C369002BE2D1012384F84030DEE70823E5
S315080231D02377C369002BD9D1012384F84130D5E777
S315080231E0704710B5846A636A83420BD0A36A834226
S315080231F010D0E36A834210D0236B834204D108239A
S31508023200237701E0012323772046FFF7E9FF00230E
S31508023210237710BD02232377F6E704232377F3E700
S31508023220704710B5044603681A6912F0020F11D0E6
S31508023230DA6812F0020F0DD06FF002021A6101234A
S31508023240037703689B6913F0030F79D0FFF78FFFA3
S315080232500023237723681A6912F0040F12D0DA685A
S3150802326012F0040F0ED06FF004021A6102232377BC
S3150802327023689B6913F4407F68D02046FFF777FFDF
S315080232800023237723681A6912F0080F12D0DA6826
S3150802329012F0080F0ED06FF008021A610423237782
S315080232A02368DB6913F0030F57D02046FFF75FFF49
S315080232B00023237723681A6912F0100F12D0DA68EE
S315080232C012F0100F0ED06FF010021A61082323773E
S315080232D02368DB6913F4407F46D02046FFF747FF91
S315080232E00023237723681A6912F0010F03D0DA68DC
S315080232F012F0010F3FD123681A6912F0800F03D02A
S31508023300DA6812F0800F3DD123681A6912F4807FB9
S3150802331003D0DA6812F0800F3BD123681A6912F0DB
S31508023320400F03D0DA6812F0400F39D123681A69C0
S3150802333012F0200F03D0DA6812F0200F37D110BD31
S31508023340FFF714FF204601F0CBFC81E72046FFF782
S315080233500DFF204601F0C4FC92E72046FFF706FF60
S31508023360204601F0BDFCA3E72046FFF7FFFE2046F4
S3150802337001F0B6FCB4E76FF001021A612046FFF7C6
S31508023380F4FEB8E76FF080021A61204601F08FFA60
S31508023390BAE76FF480721A61204601F089FABCE72F
S315080233A06FF040021A612046FFF73AFFBEE76FF058
S315080233B020021A61204601F079FAC0E7704710B573
S315080233C0846A636A83420CD0A36A834213D0E36A8F
S315080233D0834216D0236B834219D0012384F83D30E9
S315080233E003E00123237784F83E302046FFF7E6FF01
S315080233F00023237710BD02232377012384F83F3065
S31508023400F3E704232377012384F84030EDE7082302
S315080234102377012384F84130E7E700000368304A3E
S31508023420904212D0B0F1804F0FD0A2F5943290425A
S315080234300BD002F58062904207D002F58062904274
S3150802344003D002F59432904203D123F070034A68FE
S315080234501343234A90421ED0B0F1804F1BD0A2F5E7
S315080234609432904217D002F58062904213D002F548
S31508023470806290420FD002F5943290420BD002F548
S315080234804062904207D002F58062904203D002F56C
S315080234908062904203D123F44073CA68134323F02F
S315080234A080034A69134303608B68C3620B688362AD
S315080234B00B4B98420FD003F5006398420BD003F5E5
S315080234C04063984207D003F58063984203D003F518
S315080234D08063984201D10B690363012343617047F4
S315080234E0002C0140002800F0A18010B504460368AC
S315080234F04F4A93422BD0B3F1804F28D0A2F594328B
S31508023500934224D002F58062934220D002F580626B
S3150802351093421CD002F58062934218D002F580626B
S31508023520934214D002F59032934210D002F54062CB
S3150802353093420CD002F58062934208D002F580626B
S31508023540934204D04FF48B713A48FDF743FEA368C1
S315080235503BB1102B05D0202B03D0402B01D0602B7A
S3150802356017D123692BB1B3F5807F02D0B3F5007F5B
S3150802357015D12368B3F1804F17D02F4A934214D03E
S31508023580E368013B4FF6FE7293428CBF0023012388
S315080235900FE040F217112748FDF71CFEE1E74FF44A
S315080235A08C712448FDF716FEE3E7E368003B18BF73
S315080235B001234BB3A3690BB1802B2BD194F83D3071
S315080235C073B3022384F83D30214651F8040BFFF702
S315080235D025FF012384F8483084F83E3084F83F30CA
S315080235E084F8403084F8413084F8423084F8433015
S315080235F084F8443084F8453084F8463084F84730F5
S3150802360084F83D30002010BD40F219110948FDF733
S31508023610E1FDCFE74FF48D710648FDF7DBFDCDE7F7
S3150802362084F83C302046FDF72FFECAE70120704792
S31508023630002C01401CBC0208000C0040002800F0C7
S31508023640A18010B5044603684F4A93422BD0B3F1C2
S31508023650804F28D0A2F59432934224D002F5806294
S31508023660934220D002F5806293421CD002F5806212
S31508023670934218D002F58062934214D002F5903232
S31508023680934210D002F5406293420CD002F5806252
S31508023690934208D002F58062934204D040F2335135
S315080236A03A48FDF797FDA3683BB1102B05D0202BAE
S315080236B003D0402B01D0602B17D123692BB1B3F568
S315080236C0807F02D0B3F5007F15D12368B3F1804F0E
S315080236D017D02F4A934214D0E368013B4FF6FE7285
S315080236E093428CBF002301230FE040F2345127484E
S315080236F0FDF770FDE1E740F235512448FDF76AFD12
S31508023700E3E7E368003B18BF01234BB3A3690BB198
S31508023710802B2BD194F83D3073B3022384F83D30C5
S31508023720214651F8040BFFF779FE012384F8483045
S3150802373084F83E3084F83F3084F8403084F84130CB
S3150802374084F8423084F8433084F8443084F84530AB
S3150802375084F8463084F8473084F83D30002010BD9E
S3150802376040F236510948FDF735FDCFE740F23751A9
S315080237700648FDF72FFDCDE784F83C302046FFF7D3
S31508023780F3FCCAE701207047002C01401CBC020862
S31508023790000C00402DE9F04104460D46036A23F069
S315080237A010030362066A4768836923F0807323F469
S315080237B0E6430A6843EA022826F020068B6846EAA8
S315080237C00316284B984203D003F5006398420AD1A0
S315080237D0EB680BB1082B33D126F08006EB6846EA74
S315080237E0031626F040061F4B9C420FD003F50063D2
S315080237F09C420BD003F540639C4207D003F58063D5
S315080238009C4203D003F580639C4211D1AB69B3F5A0
S31508023810007F00D0D3B96B69B3F5807F00D0DBB9DE
S3150802382027F440676B6947EA8307AB6947EA830768
S315080238306760C4F818806B68A3632662BDE8F081E6
S3150802384041F6B9310848FDF7C5FCC5E741F6C73167
S315080238500548FDF7BFFCDEE741F6C8310248FDF729
S31508023860B9FCDDE7002C01401CBC020870B5044611
S315080238700E461546142A0AD8984BD34013F0010F60
S3150802388007D141F2AF019648FDF7A4FC01E03C2AB4
S31508023890F7D13368602B08D0924A934205D02ED8C6
S315080238A0702B02D0103A93422FD1B3680BB1022B78
S315080238B031D133690BB1042B33D194F83C30012B47
S315080238C000F06081012384F83C30142D00F2558102
S315080238D0DFE815F02D005301530153016A00530125
S315080238E053015301A000530153015301D10053015F
S315080238F0530153010E0153015301530130017A4A10
S315080239009342D2D010329342CFD041F2B0017448DA
S31508023910FDF760FCC9E741F2B1017148FDF75AFCAF
S31508023920C7E741F2B2016E48FDF754FCC5E72368C2
S315080239306E4A934223D0B3F1804F20D0A2F5943237
S3150802394093421CD002F58062934218D002F5806237
S31508023950934214D002F59432934210D002F5406293
S3150802396093420CD002F58062934208D002F5806237
S31508023970934204D041F2BC015948FDF72BFC31466B
S315080239802068FFF7C9FA2268936943F0080393612E
S315080239902268936923F00403936122689369316963
S315080239A00B4393610020E9E02368504A93421BD0F7
S315080239B0B3F1804F18D0A2F59432934214D002F58F
S315080239C08062934210D002F5806293420CD002F5CF
S315080239D09432934208D002F54062934204D041F2EF
S315080239E0CD013F48FDF7F6FB31462068FFF7D2FEC8
S315080239F02268936943F4006393612268936923F406
S31508023A008063936122689369316943EA012393616A
S31508023A100020B3E02368354A934217D0B3F1804FAA
S31508023A2014D0A2F59432934210D002F580629342E2
S31508023A300CD002F58062934208D002F59432934282
S31508023A4004D041F2DE012648FDF7C4FB3146206860
S31508023A50FFF7D6FA2268D36943F00803D3612268CE
S31508023A60D36923F00403D3612268D36931690B430E
S31508023A70D361002082E023681C4A934217D0B3F12F
S31508023A80804F14D0A2F59432934210D002F5806288
S31508023A9093420CD002F58062934208D002F5943222
S31508023AA0934204D041F2EF010D48FDF793FB3146EC
S31508023AB02068FFF711FB2268D36943F40063D361D8
S31508023AC02268D36923F48063D3612268D369316992
S31508023AD043EA0123D361002050E000BF111111000F
S31508023AE01CBC02085000010060000100002C0140C5
S31508023AF02368254A934208D002F50062934204D00D
S31508023B004FF488512148FDF765FB31462068FFF7D7
S31508023B1069F92268536D43F0080353652268536DA9
S31508023B2023F0040353652268536D31690B435365C9
S31508023B30002023E02368144A934208D002F5006263
S31508023B40934204D041F211111048FDF743FB314666
S31508023B502068FFF77BF92268536D43F400635365C7
S31508023B602268536D23F4806353652268536D316965
S31508023B7043EA01235365002000E00120002384F86C
S31508023B803C3070BD0220FCE7002C01401CBC020838
S31508023B9010B4846824F47F4C42EA03220A4342EAB8
S31508023BA00C0282605DF8044B7047000038B590F845
S31508023BB03C30012B00F0498204460D46012380F869
S31508023BC03C30022380F83D300B68B3F5805F18D08D
S31508023BD0602B16D010D8402B13D0502B11D083B19E
S31508023BE0102B0ED0202B0CD0302B0AD041F251517B
S31508023BF08E48FDF7EFFA04E0702B02D0B3F5005FAA
S31508023C00EDD1226891688A4B0B4093602B68602B32
S31508023C1000F07F8178D8402B00F0BE813AD9502B2C
S31508023C2070D12368834A93421BD0B3F1804F18D0D0
S31508023C30A2F59432934214D002F58062934210D0D0
S31508023C4002F5806293420CD002F59432934208D070
S31508023C5002F54062934204D041F290517348FDF74F
S31508023C60B9FA6B68B3F5004F05D023B1022B02D01F
S31508023C700A2B40F04281EB680F2B00F24481EA6876
S31508023C8069682068FFF718F950212068FFF73BF9A1
S31508023C90002005E0202B0DD009D9302B0AD00120AF
S31508023CA0012384F83D30002384F83C3038BD0BB13B
S31508023CB0102B25D123685F4A93421BD0B3F1804F5C
S31508023CC018D0A2F59432934214D002F58062934238
S31508023CD010D002F5806293420CD002F594329342D8
S31508023CE008D002F54062934204D041F2C3514F48CC
S31508023CF0FDF770FA29682068FFF705F90020CFE773
S31508023D000120CDE70120CBE7B3F5805F00F0948070
S31508023D10B3F5005F42D12368464A934217D0B3F1FE
S31508023D20804F14D0A2F59432934210D002F58062E5
S31508023D3093420CD002F58062934208D002F594327F
S31508023D40934204D041F27C513848FDF743FAAB68F6
S31508023D504BB1B3F5805F06D0B3F5005F03D0B3F578
S31508023D60405F40F0B8806B68B3F5004F05D023B1C9
S31508023D70022B02D00A2B40F0B480EB680F2B00F21C
S31508023D80B680EB686A68A9682068FFF701FF2268AF
S31508023D90936843F480439360002081E7702B43D1F4
S31508023DA02368244A93421BD0B3F1804F18D0A2F558
S31508023DB09432934214D002F58062934210D002F5EF
S31508023DC0806293420CD002F59432934208D002F5EF
S31508023DD04062934204D041F264511448FDF7FAF95D
S31508023DE0AB6843B1B3F5805F05D0B3F5005F02D087
S31508023DF0B3F5405F5DD16B68B3F5004F04D01BB1D4
S31508023E00022B01D00A2B5AD1EB680F2B5DD8EB682F
S31508023E106A68A9682068FFF7BBFE2268936843F0C0
S31508023E207703936000203BE7012039E71CBC0208B0
S31508023E308800FEFF002C01402368854A934200F061
S31508023E40EE80B3F1804F00F0EC80A2F594329342F3
S31508023E5000F0E98002F58062934200F0E68002F5FE
S31508023E608062934200F0E38002F58062934200F09A
S31508023E70E08002F58062934200F0DD8002F590321E
S31508023E80934200F0DA8002F54062934200F0D7804E
S31508023E9002F58062934200F0D48002F58062934272
S31508023EA000F0D18041F25D516A48FDF793F900208E
S31508023EB0F6E641F267516748FDF78CF99BE741F24E
S31508023EC068516448FDF786F99EE741F269516148EF
S31508023ED0FDF780F99BE741F27F515E48FDF77AF9D3
S31508023EE041E74FF4AC515B48FDF774F945E741F2F7
S31508023EF081515848FDF76EF943E741F29351554807
S31508023F00FDF768F9B7E641F294515248FDF762F9AE
S31508023F10B5E623684E4A93421BD0B3F1804F18D0B8
S31508023F20A2F59432934214D002F58062934210D0DD
S31508023F3002F5806293420CD002F59432934208D07D
S31508023F4002F54062934204D04FF4AD514148FDF761
S31508023F5041F96B68B3F5004F04D01BB1022B01D0AF
S31508023F600A2B0DD1EB680F2B10D8EA68696820680E
S31508023F70FEF7B5FF60212068FEF7C5FF00208FE631
S31508023F8041F2A3513348FDF725F9EBE741F2A45173
S31508023F903048FDF71FF9E8E723682D4A93421BD0FC
S31508023FA0B3F1804F18D0A2F59432934214D002F599
S31508023FB08062934210D002F5806293420CD002F5D9
S31508023FC09432934208D002F54062934204D041F2F9
S31508023FD0B0512048FDF7FEF86B68B3F5004F04D0E0
S31508023FE01BB1022B01D00A2B0DD1EB680F2B10D86F
S31508023FF0EA6869682068FEF75FFF40212068FEF7D5
S3150802400082FF00204CE641F2B3511248FDF7E2F86E
S31508024010EBE741F2B4510F48FDF7DCF8E8E7002078
S315080240203EE600203CE600203AE6002038E600207C
S3150802403036E6002034E6002032E6002030E600208C
S315080240402EE600202CE600202AE602202EE600BFF5
S31508024050002C01401CBC020870B504460D461646E3
S31508024060224B984223D0B0F1804F20D0A3F5943347
S3150802407098421CD003F58063984218D003F58063F2
S31508024080984214D003F59433984210D003F540634E
S3150802409098420CD003F58063984208D003F58063F2
S315080240A0984204D041F6A8611148FDF793F885B104
S315080240B0142D0CD8042D04D30E4BEB4013F0010F2C
S315080240C007D141F6A9610A48FDF784F801E03C2DBB
S315080240D0F7D105F01F050122AA40236A23EA020343
S315080240E02362236AAE401E43266270BD002C01403D
S315080240F01CBC020810111100F8B505460C461646F6
S315080241001F460068874B984236D0B0F1804F3BD0A5
S31508024110854B984241D0854B984247D0844B98426A
S315080241204DD0844B984253D0834B984258D0834BF8
S3150802413098425AD0824B98425AD040F2C36181487B
S31508024140FDF748F8002C56D195F83E00C0B2022871
S3150802415014BF00200120002840F0AF81102C00F285
S31508024160BB80DFE804F07CB9B9B999B9B9B9A1B984
S31508024170B9B9A9B9B9B9B1001429C6D8724BCB4095
S3150802418013F0010FC1D0DDE70C2CC1D841F211138F
S31508024190E34013F0010FBBD0D4E70C2CBBD841F295
S315080241A01113E34013F0010FB5D0CBE70C2CB5D8A9
S315080241B041F21113E34013F0010FAFD0C2E70C2C02
S315080241C0AFD841F21113E34013F0010FA9D0B9E7B2
S315080241D0142CA9D85C4BE34013F0010FA4D0B1E725
S315080241E0002CAFD0042CA2D1ACE7002CAAD0A1E7B0
S315080241F0002CA7D0A1E7231F0C2B28D8DFE803F051
S31508024200072727270F272727172727271F0095F866
S315080242103F00C0B2022814BF002001209BE795F890
S315080242204000C0B2022814BF0020012093E795F887
S315080242304100C0B2022814BF002001208BE795F87E
S315080242404200C0B2022814BF0020012083E795F875
S315080242504300C0B2022814BF002001207BE795F86C
S315080242603E30DBB2012B14BF00230123002B00F0E2
S315080242702681002E00F02581002F00F02481102CC3
S315080242806CD8DFE804F0316B6B6B466B6B6B4A6B71
S315080242906B6B636B6B6B670095F83F30DBB2012B78
S315080242A014BF00230123E1E795F84030DBB2012B66
S315080242B014BF00230123D9E795F84130DBB2012B5D
S315080242C014BF00230123D1E795F84230DBB2012B54
S315080242D014BF00230123C9E795F84330DBB2012B4B
S315080242E014BF00230123C1E7022385F83E300C2CB4
S315080242F000F2EB80DFE814F03600E900E900E90095
S315080243008C00E900E900E900A400E900E900E900F7
S31508024310BC00022385F83F30E9E7022385F84030DE
S31508024320E5E700BF002C01400004004000080040F9
S31508024330000C0040003401400040014000440140A6
S31508024340004801401CBC020811111100022385F81D
S315080243504130CCE7022385F84230C8E7022385F8C4
S315080243604330C4E76B6A604ADA626B6A5F4A1A6369
S315080243706B6A5F4A5A632A683B4634323146686A30
S31508024380FDF76AFA002840F0A2802A68D36843F447
S315080243900073D360012221462868FFF75DFE2B6869
S315080243A0544A93420FD002F5006293420BD002F5AB
S315080243B04062934207D002F58062934203D002F527
S315080243C08062934203D15A6C42F400425A642B68C3
S315080243D0484A934263D0B3F1804F60D0A2F5943233
S315080243E093425CD002F58062934258D002F580620D
S315080243F0934254D002F59432934250D002F5406269
S3150802440093424CD01A6842F001021A60002057E023
S31508024410AB6A354ADA62AB6A344A1A63AB6A344A19
S315080244205A632A683B4638323146A86AFDF714FAB7
S3150802443000284ED12A68D36843F48063D360A9E77B
S31508024440EB6A294ADA62EB6A284A1A63EB6A284A4D
S315080244505A632A683B463C323146E86AFDF7FCF95C
S31508024460002838D12A68D36843F40063D36091E7F9
S315080244702B6B1D4ADA622B6B1C4A1A632B6B1C4A7E
S315080244805A632A683B4640323146286BFDF7E4F9FF
S3150802449018BB2A68D36843F48053D3607AE79968CD
S315080244A0154A0A40062A1AD0B2F5803F19D01A6868
S315080244B042F001021A60002002E0022000E0012018
S315080244C0F8BD0120FCE70120FAE70120F8E7012000
S315080244D0F6E70120F4E70120F2E70120F0E70020E1
S315080244E0EEE70020ECE700BF71310208E33102086B
S315080244F0BF330208002C01400700010038B5054603
S315080245000C460368784A934228D0B3F1804F2DD0DF
S31508024510764A934233D0764A934239D0754A9342C1
S315080245203FD0754A934245D0744A93424AD0744A58
S3150802453093424CD0734A93424CD040F2647172480B
S31508024540FCF748FE0C2C00F2CC80DFE804F046CAE1
S31508024550CACA8ACACACA93CACACA9C001429D4D859
S315080245606A4ACA4012F0010FCFD0EBE70C2CCFD81B
S3150802457041F21112E24012F0010FC9D0E2E70C2C07
S31508024580C9D841F21112E24012F0010FC3D0D9E79D
S315080245900C2CC3D841F21112E24012F0010FBDD021
S315080245A0D0E70C2CBDD841F21112E24012F0010FED
S315080245B0B7D0C7E7142CB7D8544AE24012F0010F15
S315080245C0B2D0BFE7002CBDD0042CB0D1BAE7002C7C
S315080245D0B8D0AFE7002CB5D0AFE72A68D36823F482
S315080245E00073D360686AFDF785F9002221462868B8
S315080245F0FFF732FD2B683C4A93420FD002F5006260
S3150802460093420BD002F54062934207D002F58062CC
S31508024610934203D002F5806293420DD1196A41F2A0
S315080246201112114208D1196A40F24442114203D1C9
S315080246305A6C22F400425A642B68196A41F2111222
S31508024640114208D1196A40F24442114203D11A684A
S3150802465022F001021A60FCB9012385F83E300020D7
S3150802466040E02A68D36823F48063D360A86AFDF71A
S3150802467041F9BAE72A68D36823F40063D360E86A83
S31508024680FDF738F9B1E72A68D36823F48053D36073
S31508024690286BFDF72FF9A8E7043C0C2C1CD8DFE899
S315080246A004F0071B1B1B0C1B1B1B111B1B1B1600D9
S315080246B0012385F83F30002014E0012385F84030B5
S315080246C000200FE0012385F8413000200AE001238B
S315080246D085F84230002005E0012385F843300020A2
S315080246E000E0012038BD00BF002C01400004004054
S315080246F000080040000C0040003401400040014020
S3150802470000440140004801401CBC02081111110076
S31508024710F8B504460D460368624A934223D0B3F1BC
S31508024720804F20D0A2F5943293421CD002F58062C3
S31508024730934218D002F58062934214D002F5806241
S31508024740934210D002F5806293420CD002F5903261
S31508024750934208D002F54062934204D040F2B77100
S315080247605148FCF737FD2B68A3B1402B12D00BD862
S31508024770202B0FD0302B0DD0102B0BD04FF4F76116
S315080247804948FCF727FD05E0602B03D0702B01D0C2
S31508024790502BF3D1AB68802B01D0002B73D194F840
S315080247A03C30012B7BD0012384F83C30022384F869
S315080247B03D3023685E689F683A4A934203D002F501
S315080247C00062934232D16B6863B3B3F5801F29D076
S315080247D0B3F5001F26D0B3F5401F23D0B3F5800FDB
S315080247E020D0B3F5A00F1DD0B3F5C00F1AD0B3F57C
S315080247F0E00F17D0B3F5000F14D0B3F5100F11D090
S31508024800B3F5200F0ED0B3F5300F0BD0B3F5400F2A
S3150802481008D0B3F5500F05D0B3F5600F02D0B3F543
S31508024820700F36D126F470066B681E4326F07006A2
S315080248302B6833432268536023681A4A934216D078
S31508024840B3F1804F13D0A2F5943293420FD002F5FA
S31508024850806293420BD002F58062934207D002F53A
S315080248609432934203D002F54062934204D127F070
S315080248708007AA683A439A60012384F83D300020EB
S3150802488084F83C00F8BD40F2B9710748FCF7A2FC6F
S3150802489085E740F2CB710448FCF79CFCC2E702208C
S315080248A0F0E700BF002C01408CBC02087047704735
S315080248B0704708B5002000F015FB08BD2DE9F04148
S315080248C082B0054616461F4610F0100F0DD10C464B
S315080248D000F00703012B0FD0022B18D0032B19D097
S315080248E0042B1AD04FF0200808E04FF47A712348B7
S315080248F000F026FD044628E04FF0440884B120461D
S31508024900FBF7FEFC13280DD81D4B03440BE04FF0B2
S315080249104908F3E74FF05708F0E74FF04508EDE787
S31508024920184CECE7174B019300944346164A4FF48A
S315080249307A71124800F09EFE0446C0F57A718842E2
S315080249400CD9C4F57A71814210D222460B492846FF
S31508024950FFF7AFFF204602B0BDE8F0813B4632467C
S315080249600648204400F0ECFC0444EAE7074A0348F8
S31508024970204400F07FFE0444E7E700BFF00700206A
S3150802498018BD02088CBD02080CBD0208F4B802085C
S315080249900FB400B583B004AB53F8042B019300217E
S315080249A01220FFF78BFF03B05DF804EB04B07047E3
S315080249B0BFF34F8F0549CA6802F4E062044B1343FA
S315080249C0CB60BFF34F8F00BFFDE700BF00ED00E0ED
S315080249D00400FA0568B506460D4607490748FFF773
S315080249E0D7FF07480223036086802B46054A6421BF
S315080249F0103000F03FFE68BD94BD020830BD0208C3
S31508024A000000001034BD020810B50446FFF7E2FFA5
S31508024A10C82C1ED005DDC92C0ED11048FFF7B8FFE9
S31508024A2003E0012C02DC002C02DB10BD642C0ED044
S31508024A300B48FFF7ADFFF8E7FADBB4F5C87F06D0F7
S31508024A40F6DBA4F5FA74012CF2D8FFF7B1FFFFF7EB
S31508024A50AFFF0448FFF79CFFE7E700BF4CBD02081B
S31508024A6060BD020838BD02080FB400B59BB01CAC85
S31508024A7054F8045B0D49002000F04CFC00946A4689
S31508024A802946002000F04EFB0949002000F042FCAE
S31508024A90009423462A46642101A800F051FC01A984
S31508024AA00020FFF7B1FFFFF783FF00BF78BD0208BA
S31508024AB090BD020808B5012280210248FDF730F9A7
S31508024AC008BD00BF000C004808B500228021024834
S31508024AD0FDF726F908BD00BF000C004808B50022FC
S31508024AE008210248FDF71CF908BD00BF000400486A
S31508024AF010B5074B01221A600024064B1C60FFF70B
S31508024B00E3FF054B1C60FFF7E9FF204610BD00BF17
S31508024B10DC0B0020E00B0020D80B002008B5044A65
S31508024B20136801331360FFF7C5FF002008BD00BFF5
S31508024B30E00B0020002301E000BF0133B3EB001FA6
S31508024B40FADB704710B586B00DF1040C064C0FCC93
S31508024B50ACE80F002368CCF8003001A94FF090406A
S31508024B60FCF752FF06B010BDA8B8020808B5002225
S31508024B7004214FF09040FDF7D3F8FFF7E3FF5520E5
S31508024B80FFF7D8FF08BD000010B586B00DF1040C7A
S31508024B90064C0FCCACE80F002368CCF8003001A90C
S31508024BA04FF09040FCF730FF06B010BDBCB80208C3
S31508024BB000230F2B10DC10B5084C03EB430E04EB55
S31508024BC00E0C04F80E008CF801108CF80220013342
S31508024BD00F2BF1DD002010BD00207047E40B0020EA
S31508024BE010B582B03A4B1B68D86A4000394AA2FB14
S31508024BF000104008DB6AA2FB032C4FEA5C0C002378
S31508024C0004E0354A002142F8231001333F2BF8DD30
S31508024C104FF0000E38E05FFA8CF42F4941F8234032
S31508024C20013A0133002A07DB9DF80510D14011F03D
S31508024C30010FF0D0C4B2F0E7072206E05FFA8CF45F
S31508024C40254941F82340013A0133002A07DB9DF83A
S31508024C500410D14011F0010FF0D0C4B2F0E70722D8
S31508024C6006E05FFA8CF41C4941F82340013A013305
S31508024C70002A07DB9DF80610D14011F0010FF0D08B
S31508024C80C4B2F0E70EF1010EBEF10F0F0BD81349AD
S31508024C900EEB4E028C18895AA278ADF804108DF8DC
S31508024CA006200722BEE7FFF76FFF4FF4E0730A4AB2
S31508024CB008210748FFF720FA022805D0032805D05D
S31508024CC000B1052002B010BD1020FBE77420F9E7F9
S31508024CD09C070020ABAAAAAA140C0020E40B002009
S31508024CE010B50446FFF742FF08212046FFF706FCE7
S31508024CF010BD08B500F01EFB092303604FF0FF3014
S31508024D0008BD08B500F016FB092303604FF0FF3013
S31508024D1008BD08B500F00EFB092303604FF0FF300B
S31508024D2008BD08B500F006FB092303604FF0FF3003
S31508024D3008BD08B500F0FEFA092303604FF0FF30FC
S31508024D4008BD00207047FEE7FEE7FEE7134A032385
S31508024D501361536112499161124BD3614FF4806317
S31508024D601362002393625362D36211660E49516637
S31508024D704FF47A7191661367D3665367BFF35F8FF1
S31508024D8006E0C3F10F020949895C044AD15401338A
S31508024D900F2BF6D9BFF35F8F704700BF141300209D
S31508024DA0A8BD0208A4170020BC130020B4BD02083F
S31508024DB00369C268934204D881688A1A1344581E42
S31508024DC07047981A013870472DE9F8430446884611
S31508024DD01646C5688768A7EB0509914509D940684B
S31508024DE02844FBF7EDF9BFF35F8F3544E560BDE86C
S31508024DF0F88340684A462844FBF7E2F9ED1B354436
S31508024E002A4608EB09016068FBF7DAF9BFF35F8FF8
S31508024E10E560ECE72DE9F843064688461746C56875
S31508024E204FF000091AE05B1B5A1EB3685C1B9442DA
S31508024E3028BF1446BC4228BF3C46706822464146F3
S31508024E402844FBF7BDF9A144A0443F1B2544B36897
S31508024E50AB420BD0BFF35F8FF5604FB133699D420A
S31508024E60E1D3B2685B1B1A44013ADEE70025F1E793
S31508024E704846BDE8F8830000F8B50F461646184BB3
S31508024E80451C05EB450503EBC50500EB400003EBA6
S31508024E90C003DC6A012C11D0022C1CD014B10024E8
S31508024EA02046F8BD2846FFF783FF8642F8D83246E1
S31508024EB039462846FFF788FF3446F1E72846FFF7C2
S31508024EC077FF3446864228BF044622463946284694
S31508024ED0FFF77AFFE4E72846FFF79CFF0446DFE779
S31508024EE014130020F8B504460D461646094B1B78DE
S31508024EF06BB1EFF311874FF0200181F31188324627
S31508024F0029462046FFF7B8FF87F31188F8BDFFF751
S31508024F101DFFEEE71413002010B504468268531CE1
S31508024F204068834205D820688154A360E368013348
S31508024F30E360A26863689A4200D010BD21682069BE
S31508024F40FFF7D0FFA368984203D04FF0FF33E36020
S31508024F50F3E70023A360F0E72DE9F84F81460F46F1
S31508024F6015461E46DDF828A00B9A0B464FF0010897
S31508024F7003E0B3FBF5F308F10108AB42F9D2B045F9
S31508024F8000D2B04612F0010B18D1BAF1000F15D0B3
S31508024F9012F0020F02D0BEB1202400E02024BAF19A
S31508024FA0000F0BD0C24509D90AF1FF3A21464846F5
S31508024FB0FFF7B2FFD9F80C30002BF0DAD9F80C302B
S31508024FC0002B25DB012404E03024E8E7013E05FB3B
S31508024FD004F4012EFAD8B7FBF4F39D42F7D900E0A0
S31508024FE01C46B7FBF4F304FB1377124AD15C484616
S31508024FF0FFF792FFD9F80C30002B03DBB4FBF5F36D
S31508025000AC42EDD2BBF1000F02D0BAF1000F01D1CA
S31508025010BDE8F88FBAF1000FFAD0C245F8D90AF1FD
S31508025020FF3A20214846FFF777FFD9F80C30002BC4
S31508025030F0DAEDE7C8BD02082DE9F04782B0074667
S315080250408846154699460A9EDDF82CA081EAE17C37
S31508025050ACEBE17C012402E09CFBF5FC01346545DE
S31508025060FADD4C4500D24C4636B1B8F1000F02DBE8
S315080250701AF0040F00D0013E1AF0020F02D0B9F15D
S31508025080000F03D01AF0010F00D1AEB9FB68002B4E
S315080250900FDBB8F1000F1CDB1AF0040F20D1FB68F6
S315080250A0002B06DB0AF00303022B1ED0FB68002B3B
S315080250B02DDA02B0BDE8F087002EE7D0A642E5D980
S315080250C0013E20213846FFF727FFFB68002BF3DA5B
S315080250D0DCE7C8F100082D213846FFF71DFFDEE799
S315080250E02B213846FFF718FFD9E7B9F1000FDDD1B2
S315080250F0002EDBD0002ED9D0A642D7D9013E3021C8
S315080251003846FFF709FFFB68002BF3DACEE7CDF83E
S3150802511004A000964B462A4641463846FFF71CFF2E
S31508025120C7E70000F0B599B006460C46154603AB2C
S3150802513013934023149300231593179016938BE029
S315080251400020012211E040F0010001340CE040F099
S315080251500200013408E040F00400013404E040F0A3
S315080251600800013400E0002212B32378233B0D2BFA
S31508025170F9D801A151F823F05F51020867510208D4
S315080251806751020867510208675102086751020807
S315080251906751020867510208575102086751020807
S315080251A04751020867510208675102084F5102081F
S315080251B02378A3F13001C9B2092907D8013402EBD1
S315080251C0820203EB4203A3F13002F1E72E2B02D04F
S315080251D00023217814E00134002306E0013403EBAE
S315080251E0830301EB4301A1F130032178A1F1300CCD
S315080251F05FFA8CFCBCF1090FF0D9EAE714F8011F33
S315080252006C29FBD06829F9D025296DD020D37829B5
S315080252101ED858291CD35839202919D8DFE801F095
S315080252203D181818181818181818181127181818C1
S315080252301818181818181818571818481832181855
S315080252403D002B681A1D2A60197813A8FFF764FE19
S315080252500134169B002B4CDB14F8011B002948D09D
S3150802526025293FF46DAF13A8FFF756FEF1E7296823
S315080252700F1D2F600968019000920A2213A8FFF7F2
S31508025280DBFEE5E729680F1D2F6009680190009289
S315080252900A2213A8FFF760FEDAE729680F1D2F60B6
S315080252A0096801900092102213A8FFF755FECFE76E
S315080252B02B681A1D2A601F6817F8011B0029C7D018
S315080252C013A8FFF729FE169B002BF5DAC0E72B6811
S315080252D01A1D2A60196800230193082300931022D5
S315080252E013A8FFF739FEB3E7252113A8FFF714FE23
S315080252F0AEE7169B002B05DD159A32B9159A169B51
S3150802530013441693169819B0F0BD03A93046FFF751
S31508025310E9FDF3E70EB400B582B003AB53F8041BFC
S31508025320019301AAFFF7FEFE02B05DF804EB03B093
S3150802533070470000014B1868704700BF4001002003
S3150802534010B51A4C002924689AB02ADB00900490FA
S315080253504FF40270ADF80C0013D001394FF6FF7006
S3150802536002910591ADF80E006946204600F048FA0A
S31508025370421C01DA8B232360009B00221A701AB0A2
S3150802538010BD4FF6FF7002910591ADF80E00694601
S31508025390204600F035FA431C01DA8B2323601AB043
S315080253A010BD8B2323604FF0FF30F8E74001002041
S315080253B0024B13B1024800F097B87047000000008C
S315080253C0B1540208830730B548D0541E002A3FD08C
S315080253D0CAB2034601E0013C3AD303F8012B9D0702
S315080253E0F9D1032C2DD9CDB245EA05250F2C45EA6C
S315080253F0054536D9A4F1100222F00F0C03F1200E4E
S31508025400E6444FEA121C03F1100242E9045542E946
S31508025410025510327245F8D10CF1010214F00C0F44
S3150802542003EB021204F00F0C13D0ACF1040323F0C1
S3150802543003030433134442F8045B9342FBD10CF092
S3150802544003042CB1C9B21C4403F8011B9C42FBD1CC
S3150802545030BD64461346002CF4D1F9E703461446D8
S31508025460BFE71A46A446E0E770B50D4E0D4D761B0A
S31508025470B61006D0002455F8043B01349847A642D4
S31508025480F9D1094E094D761B06F000FAB61006D078
S31508025490002455F8043B01349847A642F9D170BD59
S315080254A0C4C10208C4C10208CCC10208C4C10208A8
S315080254B038B5074D074C2C1BA41005D0013C55F8EE
S315080254C0043D9847002CF9D1BDE8384006F0E4B906
S315080254D0D0C10208CCC10208704700BF704700BF9E
S315080254E0704700BF704700BF002301461A46184698
S315080254F001F076BF024A0349034800F045B900BFE6
